:100000000C942A000C9447000C9447000C94470071
:100010000C9447000C9447000C9447000C94470044
:100020000C9447000C9447000C9447000C949C02DD
:100030000C9447000C9447000C9447000C94470024
:100040000C9447000C9447000C9447000C94470014
:100050000C94470011241FBECFE5D8E0DEBFCDBF12
:1000600010E0A0E6B0E0EEECF8E002C005900D92E2
:10007000A639B107D9F720E0A6E9B0E001C01D928A
:10008000AB39B207E1F70E94C8010C9465040C94E7
:100090000000823419F118F4813439F00895833462
:1000A000B1F1843409F44CC00895413059F42AB3B5
:1000B00081E090E002C0880F991F6A95E2F7822BD9
:1000C0008ABB08952AB381E090E002C0880F991F8F
:1000D0006A95E2F7809582238ABB0895413059F4EE
:1000E00027B381E090E002C0880F991F6A95E2F77C
:1000F000822B87BB089527B381E090E002C0880F70
:10010000991F6A95E2F78095822387BB0895413055
:1001100059F424B381E090E002C0880F991F6A95DA
:10012000E2F7822B84BB089524B381E090E002C003
:10013000880F991F6A95E2F78095822384BB089502
:10014000413059F421B381E090E002C0880F991F3B
:100150006A95E2F7822B81BB089521B381E090E09C
:1001600002C0880F991F6A95E2F78095822381BBB0
:1001700008958234E9F018F4813431F055C08334A5
:1001800059F18434E9F150C049B381E090E09C0119
:10019000062E02C0220F331F0A94E2F7842F90E04C
:1001A0008223932302C0959587956A95E2F7089577
:1001B00046B381E090E09C01062E02C0220F331F5F
:1001C0000A94E2F7842F90E08223932302C095954E
:1001D00087956A95E2F7089543B381E090E09C012A
:1001E000062E02C0220F331F0A94E2F7842F90E0FC
:1001F0008223932302C0959587956A95E2F7089527
:1002000040B381E090E09C01062E02C0220F331F14
:100210000A94E2F7842F90E08223932302C09595FD
:1002200087956A95E2F7089580E008959BB39F7BD8
:100230009BBB9BB39F7D9BBB9BB39F7E9BBB9BB399
:10024000907F282F22952F70922B9BBB9BB39061A0
:100250009BBBE9EFF0E03197F1F700C000009BB3E2
:100260009F7E9BBBE9EFF0E03197F1F700C0000003
:100270009BB3907F8F70892B8BBB8BB380618BBBC3
:1002800089EF90E00197F1F700C000008BB38F7EFB
:100290008BBB8BB3807F8BBBE3EFF1E03197F1F742
:1002A00000C0000008958AB380678ABB8AB38F605C
:1002B0008ABB82E00E94160188E20E9416018FE04C
:1002C0000E94160181E00E94160183EF91E00197E0
:1002D000F1F700C0000008958A3008F4805D9BB3F8
:1002E0009F7D9BBB9BB390649BBB9BB3907F282F50
:1002F00022952F70922B9BBB9BB390619BBB000000
:100300009BB39F7E9BBBE3EFF1E03197F1F700C019
:1003100000009BB3907F8F70892B8BBB8BB3806168
:100320008BBB00008BB38F7E8BBB8BB3807F8BBB73
:1003300083EF91E00197F1F700C000000895EF927C
:10034000FF920F931F93CF937C01C0E00AC0C0318E
:1003500019F480EC0E941601F80180810E946C0162
:10036000CF5F87010C0F111DC7FD1A95F801808121
:100370008111EDCFCF911F910F91FF90EF900895D4
:1003800082E40E947602089581E40E947602089534
:10039000CF93DF9300D000D000D0CDB7DEB70E945E
:1003A000530140E060E084E40E94490040E061E0E5
:1003B00084E40E94490040E062E084E40E94490035
:1003C00040E063E084E40E94490083E08A8382E4A1
:1003D0000E94760281E40E94760280E690E00E940C
:1003E0009F01B12CA12CC12CD12C04C0BB24B394EF
:1003F00001C0B12C60E084E40E94B900082F61E0E4
:1004000084E40E94B900E82E62E084E40E94B9000E
:10041000182F63E084E40E94B900F82E013021F522
:10042000D11022C0DA80DD20A9F082E40E94890286
:100430006CE380EC91E00E94E70281E00E941601EB
:1004400088E690E00E949F018D2D0E946C01DD24C2
:10045000D3940DC081E00E9416018DE790E00E94C8
:100460009F01DD24D39403C0011101C0D12C81E090
:10047000E8120FC0C1100DC08A81882311F081508D
:100480008A83011109C082E40E947602CC24C394BD
:1004900007C0EE2021F004C0CC24C39401C0C12CBD
:1004A000113069F4A1100BC081E40E9489026CE351
:1004B00084EC91E00E94E702AA24A39403C01111E6
:1004C00001C0A12C81E0F8120DC0B1100BC08A81CF
:1004D0008F5F8A8311118ACF81E40E947602BB2448
:1004E000B39488CFFF2009F484CF84CF813419F0EE
:1004F000823441F0089568E57FEF8FE79FE30E9423
:10050000F902089568E57FEF8FE79FE30E941A03E1
:100510000895813419F0823441F0089568EF7FEF37
:100520008FEB9FE30E94F902089568EF7FEF8FEB56
:100530009FE30E941A0308951F920F920FB60F9225
:1005400011242F933F934F935F936F937F938F93D8
:100550009F93AF93BF93EF93FF9380919A008F5F28
:1005600080939A0060919A0070E080E090E00E9491
:100570006C032DED34E246E85EE30E94D0030E9456
:100580003B0360939800909198008091990089179F
:1005900068F4E0919600F0919700099513BE89B731
:1005A0008E7F89BF10929A0010929800FF91EF9170
:1005B000BF91AF919F918F917F916F915F914F917B
:1005C0003F912F910F900FBE0F901F9018959C0197
:1005D00093B7916093BF93B7946093BF789499B7A2
:1005E000916099BF60939900309397002093960093
:1005F000089521B3206221BB2FB522602FBD2EB5F7
:1006000028602EBD2EB520612EBD20E030E04AE7E7
:1006100054E40E94D0030E943B037BBD6ABD8FE17E
:100620009EE497BD86BD8EB581608EBD8FB5806816
:100630008FBD089521B3206121BB2FB522602FBD4E
:100640002EB528602EBD2EB520612EBD20E030E0F5
:100650004AE754E40E94D0030E943B0379BD68BD81
:100660008FE19EE497BD86BD8EB581608EBD8FB54E
:1006700080628FBD08950E94AF0388F09F5798F065
:10068000B92F9927B751B0F0E1F0660F771F881F97
:10069000991F1AF0BA95C9F714C0B13091F00E94B1
:1006A000C903B1E008950C94C903672F782F8827F8
:1006B000B85F39F0B93FCCF3869577956795B395D8
:1006C000D9F73EF490958095709561957F4F8F4F47
:1006D0009F4F0895E89409C097FB3EF4909580954C
:1006E000709561957F4F8F4F9F4F9923A9F0F92FF8
:1006F00096E9BB279395F695879577956795B79576
:10070000F111F8CFFAF4BB0F11F460FF1BC06F5F5B
:100710007F4F8F4F9F4F16C0882311F096E911C06D
:10072000772321F09EE8872F762F05C0662371F08E
:1007300096E8862F70E060E02AF09A95660F771FA2
:10074000881FDAF7880F9695879597F9089557FDD2
:100750009058440F551F59F05F3F71F04795880F2F
:1007600097FB991F61F09F3F79F0879508951216C6
:1007700013061406551FF2CF4695F1DF08C0161672
:1007800017061806991FF1CF869571056105089423
:100790000895E894BB2766277727CB0197F908953A
:1007A0000E94E3030C9454040E94460438F00E9413
:1007B0004D0420F0952311F00C943D040C94430457
:1007C00011240C94CA030E94A70370F3959FC1F3F0
:1007D000950F50E0551F629FF001729FBB27F00DEF
:1007E000B11D639FAA27F00DB11DAA1F649F662744
:1007F000B00DA11D661F829F2227B00DA11D621F93
:10080000739FB00DA11D621F839FA00D611D221F4C
:10081000749F3327A00D611D231F849F600D211D30
:10082000822F762F6A2F11249F5750409AF0F1F0B3
:1008300088234AF0EE0FFF1FBB1F661F771F881F1C
:1008400091505040A9F79E3F510580F00C943D0413
:100850000C94CA035F3FE4F3983ED4F386957795F2
:100860006795B795F795E7959F5FC1F7FE2B880FC2
:10087000911D9695879597F9089597F99F6780E858
:1008800070E060E008959FEF80EC089500240A94E2
:100890001616170618060906089500240A9412165B
:1008A0001306140605060895092E0394000C11F48E
:1008B000882352F0BB0F40F4BF2B11F460FF04C03B
:0E08C0006F5F7F4F8F4F9F4F0895F894FFCFCB
:1008CE0057656C636F6D65004E6F2E206F662065E9
:1008DE006D70747920736C6F74733A200054686570
:1008EE00726520617265206E6F20656D707479205F
:0608FE0073706F747300BB
:00000001FF
